:100000000C94A5100C94CD100C94CD100C94CD1024
:100010000C94CD100C94CD100C94CD100C94CD10EC
:100020000C94CD100C94CD100C94011B0C94701BEF
:100030000C94CD100C94CD100C94CD100C94CD10CC
:100040000C94CD100C94CD100C94CD100C94CD10BC
:100050000C94CD100C94CD100C94CD100C94A21DCA
:100060000C94CD100C94CD100C94CD100C94CD109C
:100070000C94CD100C94CD100C94CD100C94CD108C
:100080000C94CD100C94CD100C94CD100C94CD107C
:100090000C94CD100C94CD100C94CD100C94CD106C
:1000A0000C94CD100C94CD100C94CD1000000000D9
:1000B0000000000020400000000000002050200050
:1000C00000000000503000000000000060600000F0
:1000D0000000000000001818000000000000363684
:1000E0000000000000005636000000000002015130
:1000F000090906000000005F000000000000000089
:100100007F41410041417F00000000000000003FAE
:10011000010101004040407E0000000000003F213E
:100120003D05070070505E427E00000000000000A8
:100130007F63410041637F00000000000808087FE2
:100140000808080008080808080808004444445F34
:100150004444440041221408142241000808082A9B
:100160000808080014141414141414001434141C73
:100170001416140008081414142222002222141445
:10018000140808000205023C42422400002B2C788F
:100190002C2B000000242A7A2F2A1200001C623225
:1001A0002E23140020545E254142200042251208CF
:1001B0002452210020623E633E230200205649550E
:1001C000225840000022147F142200001C2259559E
:1001D0004D120C0000004A555529000004643C17DC
:1001E0003C64040004643C1F3C6404001C22414144
:1001F00041221C001C3E7F7F7F3E1C001C225D555F
:100200005D221C000814224122140800081C3E7FB5
:100210003E1C08007F41414141417F007F7F7F7F3D
:100220007F7F7F0040704C434C70400040707C7F6B
:100230007C704000010719611907010001071F7F49
:100240001F07010049221449142249000505057DB4
:1002500005050500080808082A1C0800081C2A08CB
:10026000080808000004027F020400000010207F3C
:1002700020100000003E414141413E000000427F0D
:1002800040000000006251514949460000224149A6
:100290004949360000302824227F2000002F4545A0
:1002A00045453900003E4949494932000001016194
:1002B00019050300003649494949360000264949D5
:1002C00049493E000020547E3414600020527F2AA9
:1002D0001A4A3000003C4020041800001E20402034
:1002E0000204180000104A4A2A1000000008454580
:1002F0004525180000482A3A4A40000000442515C8
:100300003D45400000247E145024000022527F0A04
:10031000484A340044344F443804180044344F44AD
:1003200039041900002A5A4B4E5A0800002A5A4B29
:100330004E5B080000081414224100000008141449
:10034000224504003F0004443F0404003F000444ED
:100350003F04050000205242424240000020524229
:100360004342410000245444475C040000245444A8
:10037000475C050000003F404040200000003F4037
:100380004140210002020A563F02020002020A56C0
:100390003F02030004043F44545F440004043F440C
:1003A000545F45000008093D4B4908000008093D1D
:1003B0004B490A00423A072254444400423A072279
:1003C000554445000002124E4B4A32000002124EC4
:1003D0004B4A330000101048483000000404022249
:1003E00022221C000404022223221D000002021A01
:1003F000254341000002021A2543450000205748CA
:10040000484444000020574849444500120A2752F6
:10041000503A24007F00205242424000304E38546F
:100420000F64780024147F0422523C001824124EDA
:10043000422418007F002454543F44007F00245479
:10044000543F45007F002454563D4600023A474041
:10045000413E0400023A4740413E0500023A47400F
:10046000433D06004030404D321060004030404D6A
:10047000321161004030404D321562000804020420
:1004800008101000080402040910110008040204F6
:100490000A1512007F006A6A7E2A4A007F006A6A93
:1004A0007F2A4B007F006A6A7E2D4A00006A6A6AD2
:1004B0007F2A4A0030291D4B483C1000122A7F42F7
:1004C00040422400304E38540F443800000A3E4B5E
:1004D0004A4A300000080E384614080004071C621F
:1004E000030A0400001C483E241800001E04523F6A
:1004F00012120C00002050503E48000000205050C6
:100500003F244400001C51494A483000000F42413A
:10051000211E00000010696D4B49300024147F0437
:10052000023E40000010494D4B4930000028187E23
:100530000844380024147F0442423C003049251FFF
:10054000245438004028255735284000100A2E5BD7
:10055000724A480040300C33404020000004443CC4
:10056000140C00000001413D09050300002020108B
:1005700078040000001010087C0201000018484CAC
:10058000281800000006424322120E00004048785E
:10059000484000002022223E222220000028285825
:1005A0007C0800002222124A7F0202000042221F21
:1005B00002427E000042221F02427F000012121FF0
:1005C000721210000012121F721310000008444330
:1005D00022120E000008444322120F000807422294
:1005E0001E020200080742221F020300004242428C
:1005F00042427E000042424243427F0002024F429A
:10060000221F020002024F42231E030000454A40FF
:1006100020100C0000454A4021100D0040422222CB
:100620001A264000404222221B26410004043F4477
:1006300044544C0004043F4445544D0000014640DE
:1006400020100F000001464020110F000008444B0D
:100650002A120E000008444B2A120F00080A4A3ED4
:1006600009090800080A4A3E09080900001840580C
:1006700020180000020C424C20100E00020C424CCC
:1006800021100D000405453D050504000405453D08
:100690000504050000007F080810000000007F0826
:1006A000091001000444241F040404002022222213
:1006B0002222200040412515192700002022127B0C
:1006C00006122000404020100807000040300E00B5
:1006D000020C700040300E00020D710040300E0020
:1006E000020D7200003F484848444400003F48481B
:1006F00049444500003F48484A45460000024242FE
:1007000022120E000002424223120F000002424257
:1007100022150E0008040204081020000804020438
:1007200009102100080402040A1522002414447F41
:10073000041424002414447F051425002414447F49
:100740000615220002021222520A06000021252963
:100750004A42000040704C43502040004044241462
:10076000083700000008093F4949480000101C688C
:100770000818000004040F74020A060000404848EC
:1007800078400000202222223E2020000000445415
:10079000547C000000424A4A4A4A7E000004454513
:1007A00025150C00000F4040201F000040201E00B7
:1007B0007F20100000007F4020100800007E424291
:1007C00042427E00000C4444241C000000064242C9
:1007D00022120E0010121E12127F12002022223A44
:1007E000262220000001454525150F00004142400A
:1007F00020100C000006424322120F000048281C63
:100800004878000000100C4838080000080404086C
:10081000101008000800000800000800040808087C
:10082000080808000808080808080808F000000080
:100830000000F08A4875F0598F46F0444D46F04864
:100840005B46F08465638CF04F468FF06385468F7E
:10085000F0816B8CF07D5F46F0A0B8A84646F06151
:10086000705946F086918B4D46F06D4E68F0776674
:1008700048F04C465946F0D2BBBDF0D5EEE8F09BAF
:10088000BFA3F06B485A9559F0C6B2A8E8F08C9512
:1008900056F0665159F080518BF08463F054668AAB
:1008A0004875F07D704CF04F958A4875F044955529
:1008B0008463F0776A8484F0A0CBBDD5ACF0444C5F
:1008C0005A8DF09DC8CADE99F0BEDFE0F0B4E8D2E0
:1008D000D2F0A0E1EEF05C9562F04F8C61957F0064
:1008E000000000003E5B4F5B3E3E6B4F6B3E1C3E8C
:1008F0007C3E1C183C7E3C181C577D571C1C5E7FA0
:100900005E1C00183C1800FFE7C3E7FF001824181E
:1009100000FFE7DBE7FF30483A060E262979292653
:10092000407F050507407F05253F5A3CE73C5A7F3D
:100930003E1C1C08081C1C3E7F14227F22145F5F93
:10094000005F5F06097F017F006689956A606060CD
:10095000606094A2FFA29408047E040810207E2008
:100960001008082A1C08081C2A08081E101010105D
:100970000C1E0C1E0C30383E3830060E3E0E0600A3
:100980000000000000005F00000007000700147F67
:10099000147F14242A7F2A122313086462364956CE
:1009A00020500008070300001C2241000041221CC7
:1009B000002A1C7F1C2A08083E08080080703000AE
:1009C0000808080808000060600020100804023EC3
:1009D0005149453E00427F40007249494946214104
:1009E000494D331814127F1027454545393C4A4973
:1009F00049314121110907364949493646494929B2
:100A00001E000014000000403400000008142241C1
:100A10001414141414004122140802015909063E4A
:100A2000415D594E7C1211127C7F494949363E4145
:100A30004141227F4141413E7F494949417F090966
:100A400009013E414151737F0808087F00417F4101
:100A5000002040413F017F081422417F4040404038
:100A60007F021C027F7F0408107F3E4141413E7F90
:100A7000090909063E4151215E7F09192946264987
:100A800049493203017F01033F4040403F1F20405E
:100A9000201F3F4038403F63140814630304780468
:100AA000036159494D43007F414141020408102030
:100AB000004141417F0402010204404040404000A7
:100AC0000307080020545478407F284444383844B1
:100AD000444428384444287F385454541800087E2D
:100AE000090218A4A49C787F0804047800447D407F
:100AF000002040403D007F1028440000417F40001E
:100B00007C047804787C080404783844444438FC35
:100B10001824241818242418FC7C080404084854B9
:100B200054542404043F44243C4040207C1C204076
:100B3000201C3C4030403C44281028444C9090906D
:100B40007C4464544C4400083641000000770000A7
:100B5000004136080002010204023C2623263C1E06
:100B6000A1A161123A4040207A3854545559215578
:100B70005579412154547841215554784020545599
:100B800079400C1E527212395555555939545454E6
:100B90005939555454580000457C410002457D4266
:100BA0000001457C40F0292429F0F0282528F07C1C
:100BB000545545002054547C547C0A097F493249DD
:100BC0004949323248484832324A4848303A41412D
:100BD000217A3A42402078009DA0A07D39444444C7
:100BE000393D4040403D3C24FF2424487E49436633
:100BF0002B2FFC2F2BFF0929F620C0887E0903200C
:100C0000545479410000447D413048484A323840CC
:100C100040227A007A0A0A727D0D19317D2629292F
:100C20002F28262929292630484D40203808080831
:100C30000808080808382F10C8ACBA2F102834FA52
:100C400000007B000008142A142222142A1408959C
:100C500000220095AA005500AAAA55AA55AA00008C
:100C600000FF00101010FF00141414FF001010FFFC
:100C700000FF1010F010F0141414FC001414F7000E
:100C8000FF0000FF00FF1414F404FC141417101FDD
:100C900010101F101F1414141F00101010F000006B
:100CA00000001F101010101F10101010F010000086
:100CB00000FF101010101010101010FF1000000096
:100CC000FF140000FF00FF00001F10170000FC04CD
:100CD000F414141710171414F404F40000FF00F7B0
:100CE00014141414141414F700F714141417141013
:100CF000101F101F141414F4141010F010F0000042
:100D00001F101F0000001F14000000FC140000F062
:100D100010F01010FF10FF141414FF141010101F07
:100D200000000000F010FFFFFFFFFFF0F0F0F0F018
:100D3000FFFFFF0000000000FFFF0F0F0F0F0F3835
:100D4000444438447C2A2A3E147E02020606027E6F
:100D5000027E0263554941633844443C04407E208E
:100D60001E2006027E020299A5E7A5991C2A492A9F
:100D70001C4C7201724C304A4D4D3030487848302E
:100D8000BC625A463D3E494949007E0101017E2A26
:100D90002A2A2A2A44445F444440514A4440404459
:100DA0004A51400000FF0103E080FF000008086B8B
:100DB0006B083612362436060F090F060000181885
:100DC0000000001010003040FF0101001F01011E53
:100DD00000191D1712003C3C3C3C0000000000F0D4
:100DE000F89C8E8783878E9CF8F00000FEFF03033B
:100DF000030303070EFCF80000FEFF0303030303D5
:100E0000070EFCF80000FFFF00000000000000FFDC
:100E1000FF0000FEFF8383838383C7EE7C380000DE
:100E2000F8FC0E07030303070EFCF800003F7FE009
:100E3000C08080C0E07F3FFFFF010101010101018F
:100E4000FFFF0000FFFF0C0C0C0C1C3E77E3C10001
:100E5000007FFFC0C0C0C0C0E0703F1F00001F3F48
:100E600070E0C0C0C0E0703F1F00007FFFC1C1C183
:100E7000C1C1E3773E1C00001F3F70E0C0C0C0E06E
:100E8000703F1F000000000001FFFF01000000D5BF
:100E9000F08D14A1C881CFD9F1AF2000F015F02852
:100EA000F0C599C5996C706209F05A85440180615A
:100EB0006FF06971806101578A486C8BF05F486CF4
:100EC0007062095F8F5F8F4D4A8D706209F05F48D5
:100ED0006F006C568C4C5946536B5F8F5F8F4C91F3
:100EE0008C6FF05F48695B6F005F8F5F8F4C748B16
:100EF0004F6D59805B4DF05F8F5F8F4C8666705AE7
:100F00004D956C706209F0448E08844855956C5A72
:100F10004D956FF0446509844855956C5A4D956917
:100F20005B6FF0845F48626A4C84487062F084446E
:100F30008C4D598B6FF084448C805B8A6FF05F48D6
:100F4000464A72F084448C626A4C84487062F08431
:100F50005F488A6FF0845F48695B8A6FF065684616
:100F60004A72F0634E48706209005F8E71F0704EF5
:100F70004465688D6A4C844891F05F484D598B00F8
:100F8000F06A4C8446805B6FF05F48695B4D089166
:100F9000615971F05F486C7062007E51845F484C0B
:100FA00084487062F05F486F0091615159845F48D6
:100FB0004C844891F05F48695B6F00916159845F90
:100FC000484C8446805BF08A6FF0695B8A6FF070F2
:100FD0006208F0704D598B08F095695B4D08F06B15
:100FE000484C8465688DF06568F071F062465A89F6
:100FF00048786C7062095C9562849584748062653F
:1010000061706209F04646918A09916151598400E4
:101010005A4D959484684480596846616A558F8A10
:10102000F04D8046805D958A00916159845A4D95B6
:1010300066785968616A558F695BF074806C70627C
:10104000006C6D4D005C956284956A4C716C595BC7
:101050008D706209F05B5559716C594E448D9562E3
:10106000536B0046806389656A46464D598B08F08C
:101070005A4D9584448D556A695B59005B55594CAE
:10108000716C5959805D954D08F06C706209F08A59
:10109000F0695BF054954FF046804663F0804480E1
:1010A00044F06C706208F04D598B08F0695B4D0894
:1010B000F057464F956389485971006B48F083613A
:1010C000955795F055956D63716C706209F0559563
:1010D0006D6371F055956D63716C7062005C956223
:1010E00084956C70620900466559896D445F78701B
:1010F0006209F055956D63710191615159715955AE
:10110000518361958A004F894871744A8D81614687
:101110006FF055956D6371016A487D514F8C6195F3
:10112000695B004F8948844E95728C805989486F5D
:10113000F062465A8948786C7062086B554D52448B
:10114000466984918D46706208F06B9580466C709C
:1011500062095C956284954E4CEE4A9559688D4DB6
:101160008B4E95728D706209F04C594D65617062BD
:1011700009446A84485B55596C706209F0575B4EAC
:101180006C7062095C956284958A8C4D59554670E5
:101190006209F05B56467062095595864C46914649
:1011A00070C6EEBB98EE6C706209F06C57536C46DB
:1011B000916F00A499AF868D4F448D704D598B0867
:1011C000F07B954F8948785F516265618161466F18
:1011D000006650714E95728C6C5746F084485B5592
:1011E00059626561916F00665070A499AF8065681F
:1011F0008D9109F0575B4E6F099161515970DE99DD
:10120000C5E06D816A836844548D9109F05B564650
:101210009109446C61689557466F09916151597005
:101220004D9573468AF0868D4F448D95695B4D08C8
:10123000B5D6B5D6695B6FF080628062695B6F007E
:1012400084485B55594C7B954F894859617D484E80
:101250004646695B6FF04C5946695B6F0084485B9A
:1012600055594E95728C805989486FF0575B4E697D
:101270005B6F096984916159847D954F625D7255F8
:101280008E518B4653805B8AF05B5646695B0991B1
:10129000615955956C68955B488161556A6C4669E2
:1012A0005B09F055954D467053654D710000006C1B
:1012B000706209F0A499AF5987EE8C89EE6C706268
:1012C00009F055954D467053654D710000006895C5
:1012D0008AF0A499AF5987488C89486FF055954D8D
:1012E000467053654D710000006895695BF0A499E4
:1012F000AF5987488C8948695BF06971015F8F5FDE
:101300008F715A83805B6FF05E9578694084956C2D
:101310007062094E95728D706209F0718651556147
:101320004A8D6AD299E8BD4E4C4C51848B4A8D91BE
:101330008AF091615961634EC7E8BD94625B706940
:10134000A499AF6D55614A68516257466FF0555583
:1013500071A499AFA8EEBFEE6C706209F05C95F0D5
:101360008361F04F8CF0634E48F07146F0558E6902
:101370004646695B4D08F0746A8C6253F05C956276
:101380008495F0836195F04F8C6195F0628E948A1C
:1013900075805B4D08F035F0A499AFF0BDEEA4F078
:1013A000CADFEEF0D7EEBE5D9561510808EFDFDED3
:1013B000DFDFEFF7FF0808877776777787FFFF088B
:1013C00008CF8F9F9F9F9FCFE608087DE6CF9F9F06
:1013D0009F8FCF0808897848407C80F9F208087D03
:1013E000F2F988407C80F100000000000080C0E03D
:1013F000FCFEFFFFFFFFFFFEFEFCF8F0F0F0F0E068
:10140000C0F8FCFEFEFEFCF8F8FCFEFEFEFEFCF85A
:10141000E0F0F0F0F0E0F0F8FCFEFEFFFFFFFFFF71
:10142000FEFCF8E0C08000000000000000000000AA
:1014300000000000003078FFFFFFFFFFFFFFFFFF0D
:10144000FFFFFFFFFFFFFFFFFFFFFFFFFFFFFFFFAC
:10145000FFFFFFFFFFFFFFFFFFFFFFFFFFFFFFFF9C
:10146000FFFFFFFFFFFFFFFFFFFFFFFFFFFFFF7F0C
:101470003C180000000000000000000000C0E0F088
:10148000F8FCFDFDFDFFFFFFFFFFFFFFFFFFFFFF7C
:10149000FFFFFFFFFFFFFFFFFFFFFFFFFFFFFFFF5C
:1014A000FFFFFFFFFFFFFFFFFFFFFFFFFFFFFFFF4C
:1014B000FFFFFFFFFFFFFFFFFEFEFEFEFCFCFCFC4C
:1014C000F8F8F0E0C0000001070FEFFFFFFFFFFF9B
:1014D000FFFFFFFFFFFFFFFFFFFFFFFFFFFFFFFF1C
:1014E000FFFFFFFFFFFFFFFFFFFFFFFFFFFFFFFF0C
:1014F000FFFFFFFFFFFFFFFFFFFFFFFFFFFFFFFFFC
:10150000FFFFFFFFFFFFFFFFFFFFFFEF0F070100E0
:10151000000000000377FFFFFFFFFFFFFFFFFFFF5B
:10152000FFFFFFFFFFFFFFFFFFFFFFFFFFFFFFFFCB
:10153000FFFFFFFFFFFFFFFFFFFFFFFFFFFFFFFFBB
:101540007F1F7FFFFFFFFFFFFFFFFFFFFFFFFFFF8B
:10155000FFFFFF770701000000000000000000000F
:10156000011D7FFFFFFFFFFFFFFFFFFF3F3FFFFF6B
:10157000E3070F1FBFFFFFFFFFFFFFFFFFFFFFFF9F
:10158000FFCF0703F9FFFF3F1F03000000013BFFF0
:10159000FFFFFFFFFFFFFFFFFFFF7F1D01000000B8
:1015A000000000000000000000000000031FBFFF5B
:1015B000FFFFFFE3E1F0F0F0F8FBFFFEF8F8FFFFBC
:1015C000FFFFFFFFFFFFFFFFFFFFFFFFFCFEFFFD31
:1015D000FCFCFCF8F8F8F8F0E0C0C1E3E7FFFFFF1F
:1015E000FF3F1F03000000000000000000C0E0F00B
:1015F000F0F8F8FCFCFEFFFFFFFFFFFFFFFFFFFF1F
:10160000FFFFFFFFFFFFFFFFFFFFFFFFFFFFFFFFEA
:10161000FFFFFFFFFFFFFFFFFFFFFFFFFFFFFFFFDA
:10162000FFFFFFFFFFFFFFFF9F0F0F0700000000FE
:10163000000000000000004A400000000000000020
:101640008040A0ACA24D5D5DBA74F4E810E0E0E02B
:10165000E0C08000187C7CBCB8A080B8BCBC7C7C9E
:101660001880C0E0E0E0E0C02050E8F4F47ABABAB4
:101670005A5AA4A8A040800000000000000000000A
:1016800000000000000000003048B7B4B3B7BFBF8F
:10169000BF9F8EC1DADC9C49C3E7EBF5F6FA7B0D00
:1016A00081F1FDFDFDFDFDC13DFBFBFAF6E5852B5E
:1016B000E3E1C8CCECE8C28D9EBEBFBFBFBFBBB8E4
:1016C0005B24180000000000000000000000000083
:1016D000C0E0F0F8F8F8F8FCFCFC7E7E3EC6F9FDB0
:1016E000FEFEFEFDFD3D41FDFCFCF8F9FBFBFBF9B8
:1016F000F9FCFCFDFBFBC33BFBFCFEFEFDFDFDFE20
:10170000009E9E1E3E3E3E7E7E7EFCFCFCFCF8F86B
:10171000F8F8F0F0E0C000000000010707E373B341
:10172000B9DDDCEEF2FCFFFF7F7FBF1FEFF3FDFEB4
:10173000FEFEFEFEFFFFFFFFFFFFFDFDFDFDFCFEC9
:10174000FEFCE39F7FFFFFFFFFFFFEF1CF9F3F3FC8
:101750003F7E7EFEFEFCFDF9F9F3F3E3C3070701CC
:10176000000000000000000361F0F87D7D7DBDBD3C
:101770009ECEC807FFFCE31FFFFFFFFFFFFFFFEF49
:10178000F7FFFFFFFFFFFFFFFFFFFFFFFF0FF0FE71
:10179000FD7B070F0F1F5FDFDECD8B8BB7BE7E7E1D
:1017A0007C7DF9F1610301000000000000000000F1
:1017B00000000000183E9F9FDFCFE7E76311000F96
:1017C0003FE00003070F1F3FBFBFBFBFBFBFBFDF6B
:1017D0005F6F8F07030100F83F1F03000000000048
:1017E000001163E7E7EFCFDF9F9F3E3C180000004A
:1017F00000000000000000000000000000000003E6
:101800000707A3B3C1C0C0E060E000F0F2F0707061
:1018100070662E0E1D031D0D4E66E7F3F3F8F8F00B
:10182000F8F838D8E0F0F010F0E0C00080C0C1E176
:10183000B3A3070703000000000000000000000041
:10184000C0E0E0F0F0F8F8FCFE7E3F1F0F07030158
:101850000180E0FFFEFDF8E0C06060288CC2D0008F
:1018600004D8E0C0E0F0F1F5FBFDFDFEFFFFFF3F17
:10187000010007FFFFFFFCF0C00C040101000000A5
:101880000000000000000000001C1C3E3E7EFEFF29
:10189000FFFFFFFFFEFEFEFEFCFCF8F8F0E0C0805C
:1018A0000000000000000000010103030307070718
:1018B00007070303030101170B00081C0424747EAF
:1018C0007EE6E6C6C4CCFCBC18183070E0C08000D0
:1018D00000000000000000000000010101030303FC
:1018E00003030101010000000080C0E0F0F8FCFCEF
:1018F000FEFEFEFFFFFF7F3F1F0F070703387E7FBF
:101900007F7F3F3F1F1F0F070703010000000000FC
:10191000000000160F00000080C0E0F0F8381C0C3A
:101920008CFEFE6622120A0602020000383E3331A7
:1019300010190F0F07030301000000000000000052
:10194000000080C0E0F0F8F8FCFCFEFEFFFFFFFFA7
:101950003F1F070F1F3F3F3F3F3F1F1F0F0F070353
:101960000100000000120E000080C0E0F0F07818C6
:101970003CFCE6C2F63E1E0600040F1320111F1F9A
:101980000E0C0707030100000000002070F0F8F8BB
:10199000FCFCFCFCFCFCFCFCFCF8F8F0F0E0C0C03B
:1019A0008000000000000101030307070F0F0F1F55
:1019B0001F1F1F1F3F3F3F3F1F1F0E180E002060BD
:1019C000F0D0888898F8F83818181830F0E0E0C09F
:1019D00080800000000000000000010103030707F1
:1019E000070E0E0E0F0D1C1818190F0E040808FF15
:1019F000EFDFDFDFEEDFEF0808FFF7CFAFAFB6CFE7
:101A0000F73C7EFFFFFF7E3C000808003C7E7E7EA8
:101A10003C00000808F9FE8F1F1F1F8F470808466B
:101A20008F1F1F1F1F8FFF0808F9FE81407898F154
:101A300063080862F18078407891FF0000000000A0
:101A400000000000000080C0E0F0F8F8FCFCFEFEA2
:101A5000FFFFFFFFFFFFFFFFFFFFFEFEFCFCFCF8A8
:101A6000F0E0C08000000000000000000000000066
:101A700000000000000000C0F8FEFFFFFFFFFFFFB6
:101A8000FFFFFFFFFFFFFFFFFFFFFFFFFFFFFFFF66
:101A9000FFFFFFFFFFFFFFFFFFFEF8E080000000F9
:101AA00000000000000000000000F8FFFFFFFFFF43
:101AB000FFFFFFFFFFFFFFFFFFFFFFFFFFFFFFFF36
:101AC000FFFFFFFFFFFFFFFFFFFFFFFFFFFFFFFF26
:101AD0003FFEF8C00000000000000000000001FF11
:101AE000FFFFFFFFFFFFFFFFFFFFFFFFFFFFFFFF06
:101AF000FFFFFFFFFFFFFFFFFFFFFFFFFFFFFFFFF6
:101B0000FF7F3F0780E0FF7F000000000000000033
:101B100000000000838F9EB90303070F8F9FDFFF34
:101B2000FFFFFFFFFFFFFFFFFFFFFFFFDFDF9F8FD5
:101B300007878381C0C0C0C0C381000000000000CF
:101B4000000080F0FCFEFFFFFFFFFFFFFFFFFFFF35
:101B5000FFFFFFFFFFFFFFFFFFFFFFFFFFFFFFFF95
:101B6000FFFFFFFFFFFFFFFFFFFFFFFFFFFFFFFE86
:101B7000F00000B0F8F8FFFFFFFFFFFFFFFFFFFFDF
:101B8000FFFFFFFFFFFFFFFFFFFFFFFFFFFFFFFF65
:101B9000FFFFFFFFFFFFFFFFFFFFFFFFFFFFFFFF55
:101BA000FFFFFFFFFFFC18343800000000000000BA
:101BB00000000000000080408040E0E0F0F0F0F025
:101BC000E060E0C0C0C0E070F0F8F8F8F0F0E0C00D
:101BD0008000000000000000000000000000000085
:101BE00000000000000000C0F03CC63B7C7FFFFF0F
:101BF0007FBFFF1FC08F7F7F7F3F3FFFFCE31FBF83
:101C000077EF9F7FCFCFE6F8800000000000000054
:101C100000000000000000000038CFF31C03FFFFAD
:101C2000FFFFFF01EEF2FCFDFBFBFCF3EF9F7FBF2C
:101C3000CFF1FAFDFDFEFCF803FFFFFFFF3E0C387D
:101C4000C000000000000000000000000000FF7F56
:101C5000000001071F3F7F78E79F7FFFFFFFFFFF27
:101C6000FFFFFFFBF7FFFFFFFF3F4F737C3F3F1F6F
:101C7000070000806000000000000000000000007D
:101C800000000002080000000000000102068EAF04
:101C90005F5F5FBFBFBFBFDF1F9F0F070301000074
:101CA00000008080808080000000000000000000B4
:101CB0000080F0FCFEFEFFFFFFFFFEFE00FCFCF8D4
:101CC000E000F8FBF3C7B7766EF6F1F6EF73B000FD
:101CD00078F8F0C71F7FFFFFFFFFFFFFFEF0000057
:101CE0000000B0B0706FDFBF7FFFFFFFFFFFFF1F7F
:101CF00000FFFFFFFFC001FFFFFFFBF1F8FEFEFE4C
:101D0000FEF8F1FBFCF1E79F3FFEF9E38F1FDF6F69
:101D1000B7BBBC18000808F7EFEFEEEFEFF7FF08CE
:101D200008C7B7B7B6B7B7C7FF3C7EFFFFFFFF7E58
:101D30003C0808003C7E7E7E7E3C000808F8F1F1FD
:101D4000F1F1F1F1F80808897848407880F8F10855
:101D500008F1F888784840788100000000F0F0E051
:101D6000E0E0E0C0C0C0C0C0808080C0E0F0F0F81B
:101D7000F8FCFCFCFEFEFFFFFFFDFCFCF8F8F8F0B1
:101D8000F0E0E0C0800080808080C0C0C0C0C0E0C3
:101D9000E0000000000003070F1F1F3F3F7FFFFF11
:101DA000FFFFFFFFFFFFFFFFFFFFFFFFFFFFFFFF43
:101DB000FFFFFFFFFFFFFFFFFFFFFFFFFFFFFFFF33
:101DC000FF3F3F1F1F0F070300000000000000003F
:101DD000000080F0FCFFFFFFFFFFFFFFFFFFFFFFA2
:101DE000FFFFFFFFFFFFFFFFFFFFFFFFFFFFFFFF03
:101DF000FFFFFFFFFFFFFFFFFFFCF0C00000000040
:101E00000000000000000080F0FEFFFFFFFFFFFF6A
:101E1000FFFFFFFFFFFFFFFFFFFFFFFFFFFFFFFFD2
:101E2000FFFFFFFFFFFFFFFFFFFFFFFFFFFFFFFFC2
:101E3000FFFFFFFFFFF8C000000000000000F8FFF8
:101E4000FFFFFFFFFFFFFFFFFFFFFFFFFFFFFFFFA2
:101E5000FFFFFFFFFFFFFFFFFFFFFFFFFFFFFFFF92
:101E6000FFFFFFFFFFFFFFFFFFFFFFFFFFFFFFFE83
:101E7000E00000000000033FFFFFFFFFFFFFFFFF48
:101E8000FFFFFFF3C7CFFFFFFFFFFFFFFFFFFFFFD6
:101E9000FFFFFFFFFFFF9F0F3F3F3FFFFFFFFFFFE2
:101EA000FFFFFFFFFF1FFFFF1F00000000C0F0FE4D
:101EB000FFFFFFFFFFFFFFFFFFFFFFFFFFFFFFFF32
:101EC000FFFFFFFFFFFFFFFFFFFFFFFFFFFFFFFE23
:101ED000FCF8FCFFFFEFC7F3BF1F0F030007030071
:101EE00000C0E0F0F0FFFFFFFFFFFFFFFFFFFFFF7D
:101EF000FFFFFFFFFFFFFFFFFFFFFFFFFFFFFFFFF2
:101F0000FFFFFFFFFFFFFFFFFFFFFFFFFFFFFFFFE1
:101F1000FFFF00000000000000384000000000004B
:101F2000E000000000000000000000000080C0E0B1
:101F3000F0F0F8F8F8F8F8F8FAFBF9F8F83870F07B
:101F4000F0E0E0C0800000000000000000000000A1
:101F500000C00000000000000003060C081810304C
:101F600020E0F8FE7F8FF3FDFF1F83FFFF7F0FFF51
:101F7000FFFF071FFFFFFC810FFCE30F7FFEF8E070
:101F80006020301018080C0603000000000000005C
:101F9000000000000000C0FCFFFF3F0300DF3FFF28
:101FA00003F0FFFFFF00F8FFFFFFFF00FFFFFF0749
:101FB000F00FFF0000033FFFFFF0000000000000F3
:101FC0000000000000000000000000000000FFFF13
:101FD000FFFF0000FDFEFEFCFCFCFCFDFDFCF8FB31
:101FE000FBFBF8F8FBFAFCFEFEFEFDFC000000FF28
:101FF000FFFFFE00000000000000000000000000E5
:102000000000000000001FFFFFFF80001FFFFFFF18
:10201000FFFFFFFFFFFFFFCFF7FFFFFFFFFFFFFF08
:10202000FFFFFF7F0000E0FFFFFF03000000000054
:102030000000000000000000000000E0F09070F0E0
:10204000E3472726202003878F9F9FBF3FBF7F7FC7
:102050007F7FBFBFBFDFDF8F0F070300303E3F1F13
:102060000700000000000000000000000000000069
:10207000C0F0FEFFFFFF00FF010000000000FEFFB8
:10208000FDFDFBFBFEF7F7EFEFEF6F3F1F0F0703C1
:10209000000080E0F0F0E0408080000000000000E0
:1020A00000000000C0E0E0F0F7FBFBFDFDFEFFFFDD
:1020B000F8C080404020231F1F0F0F0707030301B4
:1020C0008080C0C0E0F0F8FCFE7F9FE7FBFDFEFFD4
:1020D000FFFFFF0000000000000000080B000202EC
:1020E00002000009040000010202000005240010A3
:1020F000010524010101042402060524060001074C
:1021000005810310004009040100020A00000007D5
:102110000502024000000705830240000004030995
:102120000412010002EF0201404123368000010148
:1021300002030141726475696E6F204C4C4300418B
:10214000726475626F790000A31E11241FBECFEF69
:10215000DAE0DEBFCDBF11E0A0E0B1E0ECE6F4E6EE
:1021600002C005900D92AA33B107D9F726E0AAE381
:10217000B1E001C01D92A332B207E1F710E1C5EA58
:10218000D0E104C02197FE010E942E32C43AD1074B
:10219000C9F70E94C01E0C9434320C940000EFEC7E
:1021A000F1E0A0E0B8E000800EBC8111012C119795
:1021B000A0FDFDCF0192B9F70DB40895FC01809107
:1021C000CE01882311F13FB7F89482E08093E900B3
:1021D0002091F200822F90E01816190614F481E085
:1021E00090E0882339F0289844E64093CD0140914F
:1021F000F1004083222339F02091F200211103C025
:102200002BE62093E8003FBF08958FEF9FEF0895DE
:102210002FB7F89483E08093E9009091E800892F2C
:10222000807295FF04C09091F20080E4891B2FBF5B
:1022300008958091C50181110DC082E08093C10194
:1022400084E08093C2011092C4011092C30181E026
:102250008093C50181EC91E00895CF93DF931F92A5
:10226000CDB7DEB76983DC01ED91FC910280F3818B
:10227000E02D41E050E0BE016F5F7F4F09950F9068
:10228000DF91CF91089583E08093E9008091F2007F
:10229000882319F08AE38093E80008950E940811CA
:1022A00090E00895CF93DF931F92CDB7DEB7FC0186
:1022B0008485958597FD08C02FEF3FEF35872487EC
:1022C0000F90DF91CF910895CE0101960E94DE100C
:1022D000019719F4898190E0F3CF8FEF9FEFF0CF52
:1022E0000F931F93CF93DF931F92CDB7DEB78C016F
:1022F000FC018485958597FF0BC0CE0101960E9455
:10230000DE10019771F4898190E0F8019587848748
:10231000F801848595850F90DF91CF911F910F91E2
:1023200008958FEF9FEFF1CFFC018485958597FD90
:102330000BC09FB7F89482E08093E9008091F2008F
:102340009FBF90E0019608959FB7F89482E0809334
:10235000E9008091F2009FBF90E008954091BB0199
:102360005091BC012091B9013091BA014217530735
:10237000B4F49091E8009570E1F39091E80092FD3B
:1023800019C08093F1008091BB019091BC0101962E
:102390008F739927892B19F48EEF8093E800809131
:1023A000BB019091BC0101969093BC018093BB014D
:1023B00081E0089580E00895DF92EF92FF920F93FD
:1023C0001F93CF93DF93D82E8A01EB017B01E40E9C
:1023D000F51ECE15DF0559F0D7FE12C0FE0184911F
:1023E0000E94AE1121968111F4CF0FEF1FEFC801AB
:1023F000DF91CF911F910F91FF90EF90DF900895A3
:102400008881EECF0F931F93CF93DF931F92CDB7A9
:10241000DEB782E0898342E450E06BED70E280E851
:102420000E94DC110E941911DC0112960D911C9181
:102430000115110589F0D801ED91FC910280F3811D
:10244000E02DBE016F5F7F4FC801099597FD04C065
:10245000F80100851185ECCF89810F90DF91CF9134
:102460001F910F910895615030F02091F100FC010F
:1024700020830196F8CF289884E68093CD010895B3
:10248000AF92BF92CF92DF92EF92FF920F931F9382
:10249000CF93DF936C017B018B01040F151FEB01C0
:1024A0005E01AE18BF08C017D10759F06991D60177
:1024B000ED91FC910190F081E02DC6010995892BE9
:1024C00079F7C501DF91CF911F910F91FF90EF90A8
:1024D000DF90CF90BF90AF9008953FB7F894809170
:1024E0003B0190913C01A0913D01B0913E0126B588
:1024F000A89B05C02F3F19F00196A11DB11D3FBF3C
:10250000BA2FA92F982F8827BC01CD01620F711D0A
:10251000811D911D42E0660F771F881F991F4A9504
:10252000D1F708958F929F92AF92BF92CF92DF9290
:10253000EF92FF926B017C010E946D124B015C01D6
:10254000C114D104E104F104B9F00E946D126819BC
:1025500079098A099B09683E73408105910580F3DA
:1025600021E0C21AD108E108F10888EE880E83E064
:10257000981EA11CB11CE4CFFF90EF90DF90CF908C
:10258000BF90AF909F908F9008958F929F92AF923F
:10259000BF92CF92DF92EF92FF920F931F93CF9350
:1025A000DF936C017B018A0180911001882309F47B
:1025B0005CC08091CE01882309F457C08091C0018E
:1025C00080FF05C08091E00082608093E000E80118
:1025D000B12C8AEFA82E93E0892E2AE3922E209721
:1025E00011F4BB20D9F10E94081181110AC0AA94EC
:1025F000AA20D9F161E070E080E090E00E949212A0
:10260000EECF8C171D0611F00CF08C2F9FB7F894AD
:102610008092E9002091E80025FD02C09FBFDFCF36
:10262000282F30E0C21BD30BF701815020F04191DD
:102630004093F100FACFE20EF31EBB2021F09092FE
:10264000E800B12CEBCF8091E80085FDE7CF9092B8
:10265000E800BB24B394209709F3F3CF5D9884E698
:102660008093BF01101611063CF081E090E0F60166
:102670009383828310E000E0C801DF91CF911F9126
:102680000F91FF90EF90DF90CF90BF90AF909F9011
:102690008F9008954F925F926F927F928F929F9248
:1026A000AF92BF92CF92DF92EF92FF920F931F9360
:1026B000CF93DF934C015901FC2DC02FD0E0CE0108
:1026C000880D991D181619060CF06CC020E88216AA
:1026D00091040CF067C09B012E0D311D12161306DC
:1026E0000CF060C0603471050CF05CC04115510500
:1026F00009F458C0E62FE770FE2EDB0177FD179630
:1027000033E0B595A7953A95E1F73A2F77FF04C0E6
:10271000FF2011F03FEF3A0F6627772768197909F4
:1027200097FC02C070E060E0803891050CF44BC06B
:1027300090E89819961BA32F032E000CBB0B1A2FA1
:1027400010953F3F0CF010E021E08E2D877009F4CA
:1027500020E0E694E694E694E20EAE0DB11D1997E2
:102760001CF028E0E22EE31AE11A310F20E83203D0
:10277000D0011124A80DB91DA60FB71F019F600D30
:10278000711D1124460F571F0F2D0F2C000C110B1C
:10279000F33009F41CC1C8F4F13009F4D0C0F230B0
:1027A00009F47CC0DF91CF911F910F91FF90EF90C2
:1027B000DF90CF90BF90AF909F908F907F906F9061
:1027C0005F904F900895902FB5CFFA3FB1F1232F2E
:1027D0002E0DFB3F39F7321729F3BD0161537E4FB0
:1027E000D12CC12CC91608F0A4C0FA01EC0DFD1DB6
:1027F000E491F0E04F01002E02C0880C991C0A946D
:10280000E2F737FD06C0FB018081E82CE0948E21C1
:102810008083FF2061F0373054F45B01F0E8AF0EA5
:10282000B11CE92CE094F50180818E218083FFEFBB
:10283000CF1ADF0A6F5F7F4FD5CF232F2E0D3217B0
:1028400009F4B0CFBD0161537E4FD12CC12CC91604
:1028500008F069C0FA01EC0DFD1DE491F0E04F01B4
:10286000002E02C0880C991C0A94E2F737FD04C0C0
:10287000FB01808188298083FF2051F0373044F4A8
:102880005B01F0E8AF0EB11CF501808189298083DE
:10289000FFEFCF1ADF0A6F5F7F4FD9CF6FEF70E086
:1028A0000F2C02C0660F771F0A94E2F760957095AF
:1028B000772E232F2E0D321709F474CFFD01E1532B
:1028C000FE4F6F01B12CA12CA91638F5FA01EA0DC3
:1028D000FB1DE491F0E02F01002E02C0440C551CBA
:1028E0000A94E2F737FD05C0F6018081862384292A
:1028F0008083FF2059F037304CF44601F0E88F0E0A
:10290000911CF4018081872185298083FFEFAF1A14
:10291000BF0A8FEFC81AD80AD7CF3F5F4C0F5D1F91
:10292000A058BF4FC8CF3F5F4C0F5D1FA058BF4F8F
:1029300086CF3F5F4C0F5D1FA058BF4F4CCF6A0D35
:102940007B1D232F2E0D321709F42CCFFD01E153EF
:10295000FE4F6F01B12CA12CA91688F5FB01EA0DE1
:10296000FB1D8490912C002E02C0880C991C0A94A7
:10297000E2F780949094FA01EA0DFB1D6490712CAB
:10298000002E02C0660C771C0A94E2F737FD05C0E2
:10299000F6018081882186298083FF2049F0373025
:1029A0003CF4F601E058FF4F80818921872980831C
:1029B000FFEFAF1ABF0A8FEFC81AD80ACDCF3F5F1B
:1029C0004C0F5D1F6C0F7D1FA058BF4FBCCFC92E91
:1029D000D12CFA01E60FF71FA153BE4F00E810E01B
:1029E0000C191D09CC19DD09BE01660F771F41E0E6
:1029F00050E06A010F2C01C0CC0C0A94EAF7592F61
:102A00002E2D792ECF93DF93ED01EF96EF96229640
:102A10008590A590FF2059F08C9C4001AC9C500102
:102A200037302CF4E880B094EB20E928E992332386
:102A30003AF0EC90A094EA20E828ED920C9421154D
:102A400011965A9529F72A9551F0572D339511244F
:102A5000E60FF11DA00FB11DC00FD11DD9CFDF9121
:102A6000CF9111249FCECF92EF920F93FA01049150
:102A70003196E4904E5F5F4FCC24C3940E944A137A
:102A80000F91EF90CF900895CF92EF920F93FA01AC
:102A900004913196E4904E5F5F4F22E0C22E30E009
:102AA00020E00E944A130F91EF90CF9008952D9A45
:102AB0000895BC0190E080E00C9492128FB1809553
:102AC000807F669B88601C9B8460089520E191E074
:102AD00061FD94E060FD990F62FD9295687F269FED
:102AE000D0011124A80FA153BE4F8C9140FF03C009
:102AF000892B8C93089590958923FBCF8F929F9279
:102B0000AF92BF92CF92DF92EF92FF920F931F93FB
:102B1000CF93DF936D3089F0C0904B01D0904C0182
:102B20006A30D1F410924A011092490188E0C80E2F
:102B3000D11CD0924C01C0924B0181E090E0DF911A
:102B4000CF911F910F91FF90EF90DF90CF90BF90AA
:102B5000AF909F908F9008950091490110914A0184
:102B6000E5E06E9FE0011124C152D74F5801F12CCE
:102B7000F5E0E12CFF1629F0CE010196FE01E4906C
:102B8000EC01912C812CF0E8AF16B10458F4B60199
:102B9000680D791D6034710528F44E2D4170C50112
:102BA0000E946615E6948FEF881A980AE8E08E1660
:102BB000910449F7F394FFEFAF1ABF0A86E0F812C9
:102BC000D7CF0A5F1F4F10934A0100934901B5CF39
:102BD00090914701982329F490914801982381E02E
:102BE00009F480E00895CF93C82F0E945E15982FB6
:102BF0009C2381E09C1380E0CF91089580E00C94A9
:102C0000CF103F924F925F926F927F928F929F92DE
:102C1000AF92BF92CF92DF92EF92FF920F931F93EA
:102C2000CF93DF93803891050CF099C0FB01E00F42
:102C3000F11D1E161F060CF092C0603471050CF0D9
:102C40008EC0DB0177FF04C0AA27BB27A61BB70BEA
:102C5000A770BB27EB0177FD2796F3E0D595C795C5
:102C6000FA95E1F777FF07C0219768E070E0FB0174
:102C7000EA1BFB0BDF0130E0069506950695402E1A
:102C8000512CBE017695762F662777956795680F4C
:102C9000791F61537E4F8A01AE01E0E8F0E04F01F9
:102CA000881A990A88E090E06C01CA1ADB0A4F3F43
:102CB000FFEF5F070CF443C090E080E03B01E0E8E9
:102CC0006E0E711C4F3F540709F473C05B01A80ED0
:102CD000B91EF501F080F801E80FF91F3324339491
:102CE000E3104FC0E4910A2E01C0EE0F0A94EAF7F8
:102CF000FE2AF501F0821097D1F047305105B9F066
:102D00005301A80EB91EF501F080FC01E00FF11F80
:102D100033243394E31041C0E491F0E00C2C02C062
:102D2000F595E7950A94E2F7FE2AF501F0820196FF
:102D30008217930724F48816990609F0C3CF4F5FD2
:102D40005F4F60587F4F020F131FCA018C1B9D0BF2
:102D50008415950524F44830510509F0A8CFDF917A
:102D6000CF911F910F91FF90EF90DF90CF90BF9088
:102D7000AF909F908F907F906F905F904F903F901B
:102D80000895E491F0E00A2E02C0EE0FFF1F0A94AE
:102D9000E2F7E095F095FE22ACCFE491F0E00C2C48
:102DA00002C0F595E7950A94E2F7E095F095FE22CA
:102DB000BCCF109709F0A4CFBACF8F929F92AF9259
:102DC000BF92CF92DF92EF92FF920F93CF93DF9358
:102DD0004B01EC015C01A40EB11C7B01E20EF11C65
:102DE000CA15DB05CCF46401C70121E4E216F10445
:102DF00014F080E490E0C816D90664F4C038D10518
:102E000028F4402FB601CE010E9466158FEFC81A34
:102E1000D80AEACF2196E4CFDF91CF910F91FF90AE
:102E2000EF90DF90CF90BF90AF909F908F900895DC
:102E3000813051F4662309F4A1C08FEF860F8230F0
:102E400008F071C061E018C0823049F4662381F156
:102E50008FEF860F61E0833078F060E00DC0833043
:102E600069F4611102C069E007C06130D1F18EEFF1
:102E7000860F61E0823088F7862F0895843031F420
:102E8000662309F49CC06130A9F558C0853051F41F
:102E9000662309F473C0613021F162506230E8F6B4
:102EA00066E0EACF8630E9F2873021F46111EBCF9A
:102EB00068E0E2CF883049F46623A9F26130F1F18D
:102EC0006230D1F2633049F6EBCF893061F466238A
:102ED00009F47FC0613009F441C06250623008F0EB
:102EE000BCCF62E0C9CF8A3061F4662309F471C0B7
:102EF0006130B9F3623009F4A5CF633009F0ADCF8A
:102F0000BBCF8B3039F4662309F461C0613029F7F7
:102F100065E0B2CF8C3059F46623B1F1613009F32A
:102F2000623009F4BDCF633009F097CFDACF8D302E
:102F300039F4662309F44BC0613079F663E09CCF25
:102F40008E3071F4662309F446C0613009F441C043
:102F5000623009F477CF633009F07FCF64E08CCF23
:102F60008F3041F46623B9F16130C1F3623099F7D3
:102F70006CE082CF803121F4611185CF67E07CCF96
:102F8000813121F4611159CF6DE076CF823119F48E
:102F90006111BCCFEDCF833149F4662349F3613031
:102FA00009F46ACF623009F0A8CF66CF843119F4F2
:102FB00061114ECFE3CF853121F46111AFCF6AE0CB
:102FC0005BCF863109F049CF611137CFF8CF6FE081
:102FD00053CF6BE051CF6EE04FCFAF92BF92CF9205
:102FE000DF92EF92FF920F931F93CF93DF93182FEF
:102FF000F62ED22EA02EC42EEA01FE01449180E1CD
:10300000840F833050F1F0EFBF1217C0403FA8F497
:10301000193718F088E0F80E10E0E8E04E9FA001A4
:10302000112444555F4F6F2D70E0EA2C08E028E032
:10303000812F90E00E940116185F21968C2F8C1929
:103040008D15D8F2DF91CF911F910F91FF90EF90E6
:10305000DF90CF90BF90AF900895B42EEECF0F9336
:1030600010924A011092490110924C0110924B01AA
:10307000411133C2613099F4682F62956F706A5FB5
:10308000660F660F660F8F7001E026E049ED58E08D
:10309000880F880F880F0E94ED170F9108956230F6
:1030A00069F4682F62956F706A5F660F660F660F2E
:1030B0008F7001E024E045ED58E0EACF633069F419
:1030C000682F62956F706A5F660F660F660F8F706C
:1030D00001E024E041ED58E0DBCF643069F4682F73
:1030E00062956F706A5F660F660F660F8F7001E002
:1030F00025E04CEC58E0CCCF653069F4682F629540
:103100006F706A5F660F660F660F8F7001E024E0D4
:1031100048EC58E0BDCF663069F4682F62956F7057
:103120006A5F660F660F660F8F7001E026E042EC63
:1031300058E0AECF673069F4682F62956F706A5FB0
:10314000660F660F660F8F7001E025E04DEB58E0CB
:103150009FCF683069F4682F62956F706A5F660F61
:10316000660F660F8F7001E026E047EB58E090CFC6
:10317000693069F4682F62956F706A5F660F660F39
:10318000660F8F7001E025E042EB58E081CF6A3096
:1031900069F4682F62956F706A5F660F660F660F3D
:1031A0008F7001E026E04CEA58E072CF6B3069F492
:1031B000682F62956F706A5F660F660F660F8F707B
:1031C00001E026E046EA58E063CF6C3069F4682FEE
:1031D00062956F706A5F660F660F660F8F7001E011
:1031E00024E042EA58E054CF6D3069F4682F6295CC
:1031F0006F706A5F660F660F660F8F7001E026E0E2
:103200004CE958E045CF6E3069F4682F62956F70D5
:103210006A5F660F660F660F8F7001E023E049E971
:1032200058E036CF6F3069F4682F62956F706A5F2F
:10323000660F660F660F8F7001E024E045E958E0E5
:1032400027CF603169F4682F62956F706A5F660FEF
:10325000660F660F8F7001E024E041E958E018CF57
:10326000613169F4682F62956F706A5F660F660F4F
:10327000660F8F7001E024E04DE858E009CF62311D
:1032800069F4682F62956F706A5F660F660F660F4C
:103290008F7001E025E048E858E0FACE633169F428
:1032A000682F62956F706A5F660F660F660F8F708A
:1032B00001E026E042E858E0EBCE643169F4682F83
:1032C00062956F706A5F660F660F660F8F7001E020
:1032D00024E04EE758E0DCCE653169F4682F629552
:1032E0006F706A5F660F660F660F8F7001E024E0F3
:1032F0004AE758E0CDCE663109F0DFC0682F62950D
:103300006F706A5F660F660F660F8F7001E024E0D2
:1033100046E758E0BDCE623069F4682F62956F7061
:103320006A5F660F660F660F8F7001E024E04DE65E
:1033300058E0AECE633069F4682F62956F706A5FB3
:10334000660F660F660F8F7001E024E049E658E0D3
:103350009FCE643069F4682F62956F706A5F660F64
:10336000660F660F8F7001E026E043E658E090CECE
:10337000653069F4682F62956F706A5F660F660F3B
:10338000660F8F7001E025E04EE558E081CE663093
:1033900069F4682F62956F706A5F660F660F660F3B
:1033A0008F7001E026E048E558E072CE673069F49E
:1033B000682F62956F706A5F660F660F660F8F7079
:1033C00001E024E044E558E063CE683069F4682FFA
:1033D00062956F706A5F660F660F660F8F7001E00F
:1033E00024E040E558E054CE693069F4682F6295D6
:1033F0006F706A5F660F660F660F8F7001E025E0E1
:103400004BE458E045CE6A3069F4682F62956F70DE
:103410006A5F660F660F660F8F7001E024E047E475
:1034200058E036CE6B3069F4682F62956F706A5F32
:10343000660F660F660F8F7001E025E042E458E0EA
:1034400027CE6C3069F4682F62956F706A5F660FE3
:10345000660F660F8F7001E024E04EE358E018CE4F
:103460006D3069F4682F62956F706A5F660F660F42
:10347000660F8F7001E024E04AE358E009CE6E3019
:1034800069F4682F62956F706A5F660F660F660F4A
:103490008F7001E024E046E358E0FACD6F3069F424
:1034A000682F62956F706A5F660F660F660F8F7088
:1034B00001E024E042E358E0EBCD623309F0EDCDCA
:1034C000682F62956F706A5F660F660F660F8F7068
:1034D00001E026E04CE258E0DBCD613009F01BCF83
:1034E000682F62956F706A5F660F660F660F8F7048
:1034F00001E025E041E758E0CBCD089590E080E081
:1035000008958F929F92AF92BF920F931F93CF9384
:10351000DF93CDB7DEB7A1970FB6F894DEBF0FBE2D
:10352000CDBF19A2423008F44AE08E010F5D1F4F53
:10353000842E912CB12CA12CA50194010E94BB31A9
:10354000E62FB901CA01EA3044F5E05DD801EE93F7
:103550008D01232B242B252B79F790E080E0109709
:1035600069F0FD0101900020E9F73197AF014A1B96
:103570005B0BBD018FE196E00E944012A1960FB651
:10358000F894DEBF0FBECDBFDF91CF911F910F9199
:10359000BF90AF909F908F900895E95CD7CFCF9266
:1035A000DF92EF92FF92CF93DF936C01990FEE08B9
:1035B000FF08F7FE19C06DE28FE196E00E947E15CC
:1035C000EC0166277727CB016C197D098E099F09CD
:1035D0004AE00E94811A8C0F9D1FDF91CF91FF90CE
:1035E000EF90DF90CF9008954AE0C701B601DF91D8
:1035F000CF91FF90EF90DF90CF900C94811A0C94B4
:1036000073311F920F920FB60F9211248F939F93D5
:103610008091E1009091E100937F9093E10083FF1E
:103620000FC01092E90091E09093EB001092EC0033
:1036300092E39093ED001092CE0198E09093F00009
:1036400082FF22C093E09093E9009091F2009923C9
:1036500019F09AE39093E8009091BF01992341F00B
:103660009091BF0191509093BF01911101C05D9A5B
:103670009091CD01992341F09091CD01915090937B
:10368000CD01911101C0289A84FF18C08091E200F9
:103690008E7E81608093E2008091E1008F7E809336
:1036A000E1008091C0018E7E80618093C0019F9176
:1036B0008F910F900FBE0F901F90189580FFF7CF3E
:1036C0008091E2008E7E80618093E2008091E10033
:1036D0008E7E8093E1008091C0018E7E8160E5CF77
:1036E0001F920F920FB60F921124CF92DF92EF929A
:1036F000FF920F931F932F933F934F935F936F937B
:103700007F938F939F93AF93BF93EF93FF93CF9349
:10371000DF93CDB7DEB76C97DEBFCDBF1092E90067
:103720008091E80083FF25C068E0CE0145960E94A5
:10373000331282EF8093E8008D8987FF39C0909122
:10374000E80090FFFCCF982F907609F034C19E8955
:103750004F89588D2F89F88C911131C0803861F5CF
:103760008091BE018093F1001092F1008EEF809362
:10377000E8006C960FB6F894DEBF0FBECDBFDF91A8
:10378000CF91FF91EF91BF91AF919F918F917F91D9
:103790006F915F914F913F912F911F910F91FF90EA
:1037A000EF90DF90CF900F900FBE0F901F90189565
:1037B0009EEF9093E800C7CF1092F100D5CF9130E3
:1037C00059F48111D3CF4130510581F68091BE016A
:1037D0008D7F8093BE01CACF933049F48111C6CF4B
:1037E0004130510519F68091BE018260F2CF9530CB
:1037F00041F48091E80080FFFCCF20682093E30033
:10380000B5CF963009F0A9C00B8D1C8D22E0109227
:10381000E9001092BC011092BB01F2122EC010926E
:10382000BA011092B9010E9402121F8299E0998395
:10383000FA8291E09E8390EA98879AEF9987209187
:10384000BB013091BC01275F3F4F3C832B838D83AD
:103850001092E9001092BC011092BB011093BA01C2
:103860000093B90149E050E0BE016F5F7F4F80E0F7
:103870000E94DC110E94021279CF1093BA010093CA
:10388000B9010E941911DC0112960D911C910115CC
:10389000110509F451C1D801ED91FC910480F58125
:1038A000E02DBE016B5E7F4FC8010995009709F0BE
:1038B0003EC1F80100851185EACFF3E0FF120EC08A
:1038C0008F89882309F440C0823061F440E867E0C2
:1038D0008FE391E20E94EC1D811148CF81E2809339
:1038E000EB0047CF813029F440E86BE083E391E2BD
:1038F000F1CF833099F70E941911DC011296ED90F7
:10390000FC908E010F5F1F4F6801E114F10479F004
:10391000D701ED91FC910680F781E02DB801C70138
:103920000995080F111DF701E084F184EECFD8014D
:103930001C92F60101900020E9F73197BF016C1944
:103940007D0940E0C601C6CF6DE171E2FB01449103
:1039500050E080E80E94DC1109CF973009F4BECF17
:10396000983021F481E08093F10000CF993009F084
:10397000FDCE837009F0B2CFE6E1F1E081E031E005
:1039800096E32191222371F08093E9003093EB00BC
:10399000DF0111972C912093EC009093ED008F5F45
:1039A000873079F78EE78093EA001092EA008F89DA
:1039B0008093CE01DBCE8B8D9C8D1092E90010920E
:1039C000BC011092BB019093BA018093B901898D1B
:1039D000811192C08E899D89913A49F4813209F012
:1039E0007DCF47E050E069E071E080E0B3CF9132F5
:1039F00009F074CF833269F48F89988DB0E0A0E02C
:103A00008093050190930601A0930701B0930801EC
:103A1000ADCE803269F48091E80082FFFCCF67E090
:103A200089E091E00E9433128BEF8093E8009ECEF4
:103A3000823209F09BCE8F8980931001EEEFFFE771
:103A4000859194918B3F9C4D51F1E0E0F8E080919D
:103A5000090190910A01A0910B01B0910C01803BEA
:103A60009440A105B105F1F48091100180FD1AC0C8
:103A7000EE3F8AE0F80789F587E797E7918380832F
:103A8000809160008093BD0188E19BE00FB6F894BF
:103A9000A895809360000FBE9093600067CEEEEF14
:103AA000FAE0D5CF808191818737974709F05ECEC4
:103AB000A895809160008861809360008091BD012D
:103AC00080936000EE3F2AE0F20789F08091FE0AC1
:103AD0009091FF0A9183808349CE808191818737BD
:103AE000980751F29093FF0A8093FE0AC5CF109277
:103AF000FF0A1092FE0A3ACE0E941911DC011296BA
:103B00000D911C910115110509F4E8CED801ED9134
:103B1000FC910190F081E02DBE016B5E7F4FC801EA
:103B20000995811123CEF80100851185EBCF181678
:103B300019060CF41BCED2CEF1E0FF12BECE61E22C
:103B400071E204CF1F920F920FB60F9211242F93A0
:103B50003F938F939F93AF93BF9380913F01909139
:103B60004001A0914101B091420130913A0123E01E
:103B7000230F2D3758F50196A11DB11D20933A0151
:103B800080933F0190934001A0934101B093420183
:103B900080913B0190913C01A0913D01B0913E018B
:103BA0000196A11DB11D80933B0190933C01A09310
:103BB0003D01B0933E01BF91AF919F918F913F9195
:103BC0002F910F900FBE0F901F90189526E8230F8E
:103BD0000296A11DB11DD2CFEF92FF920F931F93BA
:103BE000CF93DF93F82E192FE62E042F81E0860F56
:103BF000880F0E94AE1183E00E94AE11CF2DD12F0D
:103C0000EC0EFD2EF11CCE15DF05B9F007FF13C039
:103C1000FE0184910E94AE11182F80E00E94AE1127
:103C2000812321968111EFCFDF91CF911F910F91C9
:103C3000FF90EF9008958881EDCF81E0F5CF7F92DE
:103C40008F929F92AF92BF92CF92DF92EF92FF92AC
:103C50000F931F93CF93DF93082FD62F742E0E94BC
:103C60001B312CE230E040E050E00E948931E62E2A
:103C7000F12C10E081E0781609F445C0D12CC12C5C
:103C800096E1A92EB12C01501109470185E1880E5A
:103C9000911CC7018C0D9D1DB5010E940632801735
:103CA000910741F1C1E0C80FC4018C0D9D1D8B9798
:103CB00050F46D2F8C2F0E94181787111BC081E0C4
:103CC0008093550108C060E08C2F0E94181787115F
:103CD00011C0109255018C2FDF91CF911F910F9140
:103CE000FF90EF90DF90CF90BF90AF909F908F901C
:103CF0007F9008958FEFC81AD80A8DE2C816D104B4
:103D000041F6C0E0E8CFB12CA12C86E1C82ED12C21
:103D100001501109C7018A0D9B1DB6010E94063290
:103D20008017910741F0C1E0C80F6D2F8C2F0E94C2
:103D30001817813029F28FEFA81AB80A87E1A81660
:103D4000B10441F7DECFEFECF5E01382128288EE8A
:103D500093E0A0E0B0E084839583A683B78380E2FC
:103D600091E0918380838FEF9FEF95878487EFE1C8
:103D7000F6E01382128282E391E0918380830895BA
:103D8000789484B5826084BD84B5816084BD85B536
:103D9000826085BD85B5816085BD80916E00816042
:103DA00080936E00109281008091810082608093E8
:103DB00081008091810081608093810080918000EA
:103DC0008160809380008091910082608093910057
:103DD000809191008160809391008091900081603A
:103DE000809390008091C10084608093C100809195
:103DF000C10082608093C1008091C1008160809386
:103E0000C1008091C30081608093C3008091C00095
:103E100082608093C0008091C20081608093C20064
:103E200080917A00846080937A0080917A00826029
:103E300080937A0080917A00816080937A008091EB
:103E40007A00806880937A001092CE011092BE01B1
:103E50001092C0018091D70081608093D70080EAE2
:103E60008093D80089B5806189BD89B5826089BD9C
:103E700009B400FEFDCF61E070E080E090E00E94B8
:103E800092128091D8008F7C80618093D8008091BD
:103E9000E000807F8093E0008091E1008E7E80933F
:103EA000E1008DE08093E200559A209A81EC8093A6
:103EB0007C0085B1806F85B984B1877E84B984B177
:103EC000876E84B95E9A5F988AB1806D8AB9769A56
:103ED0006E9881B3806F81BB899880B38D7080BBF1
:103EE00080E58CBD81E08DBD85E090E00E94591594
:103EF0005F9A85E090E00E9459155E985C98EFE823
:103F0000FEE084918EBD00000DB407FEFDCF31961A
:103F10000EE0EC39F007A9F75C9A81E88093640021
:103F2000809165008160809365000E94FE1580E8A5
:103F30000E94F3158823A9F05C9885EA8EBD0000E5
:103F40000DB407FEFDCF5C9A2E982F982D98809186
:103F5000640080628093640081E083BF889513BE13
:103F6000FCCF84E00E94F315882309F448C02D9803
:103F700084E80E94F3158823E1F00E94571588EC2D
:103F800090E00E9459152F9882E090E00E947331D2
:103F90008F3F29F06FEF82E090E00E947B3184EF49
:103FA00091E00E9459152F9A84E80E94F31581111F
:103FB000FBCF84E10E94F3158823E1F00E9457159E
:103FC00088EC90E00E9459152E9882E090E00E94C3
:103FD0007331882329F060E082E090E00E947B3119
:103FE00084EF91E00E9459152E9A84E10E94F31506
:103FF0008111FBCF88EC90E00E945915B2CF0E944E
:10400000571582E090E00E94FF1A882309F479C0D6
:104010003E9A3F9A81E090E00E94FF1A182F147098
:1040200081FF0EC011112E98C1EFDFEF80E40E94D6
:10403000F315882309F468C02E9A2F9A0E94571509
:1040400082E390E00E9459150E945E158111F8CF1D
:1040500080E180930001809164008E7F80936400F2
:1040600080917A00806480937A0080917A0086FD46
:10407000FCCFC0917800D09179000E946D12AB0105
:10408000BC01CE01B0E0A0E0DC01992788278C01BB
:104090009D01040F151F261F371FC901B80120916C
:1040A000640021602093640061157105810591050C
:1040B00011F00E946A310E941B3123E030E040E0A1
:1040C00050E00E9489316093500163E0262E312C2C
:1040D0002FB7F89480913F0190914001A091410148
:1040E000B09142012FBF20914501222309F466C0FF
:1040F0001092450180E090E0892B51F30E9400006E
:10410000E4CF3E983F9886CF112329F0C430D105E3
:1041100011F42E9A2F9881E00E94CF10EE24E394A0
:1041200000E128E54FED5DE0BE0184E190E00E94F2
:1041300001160E94FE158FE090E00E94591521960D
:10414000C931D10509F072CF112311F02F9A2D98A2
:1041500080E991E00E9459150E94571581E090E096
:104160000E94FF1A80FF6CCF8AE090E00E94FF1A45
:104170009FEF980F9E3F08F063CF22E330E030932B
:104180004A012093490128E330E030934C01209309
:104190004B01CBE0D0E0682F8FE196E00E947E15C6
:1041A000CE010E94FF1A2196C131D105A1F70E94CC
:1041B000FE1588EE93E00E94591542CF30914601DA
:1041C000182F131B312F40910001141748F43F5F43
:1041D000341708F08FCF81E083BF889513BE8ACF54
:1041E000C1E0C093450180934601809143019091C5
:1041F000440101969093440180934301EFECF1E078
:1042000021112FEF002421932193219321930394D3
:10421000D1F710924C0110924B0110924A0110926A
:10422000490180914801809347010E945E15809367
:104230004801C093B801C093B701C093B601109272
:10424000B5011092B4011092B3018091B2018F5F59
:10425000803809F49AC18093B2011092B101109292
:10426000B0011092AF01D091B2018BEAD89F812D9D
:10427000112486956EE10E94EC31911189C181E093
:104280008093B1011092AE01C091AD01C1118DC1F9
:1042900082E28093AC0186EE9FEF9093AB01809316
:1042A000AA0185E58093A90188E08093A80181E0B7
:1042B0008093AE011092A70180E20E94E815882346
:1042C00049F08091A60190E00296B1010E94063269
:1042D0008093A60180E40E94E815882349F080912C
:1042E000A60190E00196B1010E9406328093A601DA
:1042F00084E00E94E815882341F081E08093AD01BD
:104300008091A6018F5F8093A5015091AC01C09070
:1043100004012091AA013091AB01C0910201D0911A
:1043200003016091A9014091010189E090E0C51667
:1043300008F4C3945C1508F4CA94C217D3070CF4AC
:1043400021962C173D070CF42197461708F44F5F70
:10435000641708F44150019751F740930101D0933D
:104360000301C0930201C092040101E020E440E88F
:1043700070E060E090E080E00E94DD166090A801AF
:10438000712C4424552446185708D12C29E53DE1C9
:1043900049E15FE1B201C6010E9433158091B1018C
:1043A0000BE110E0061917092CE1E22EF12CE618BA
:1043B000F7088111BEC54FE45DE1B801C601419621
:1043C0000E94441545E45DE1B701C60181960E9453
:1043D000441595E2A92EB12CA618B70839E1C30EF1
:1043E000D11C4FE15DE1B501C6010E9444158091E9
:1043F000B801813031F445E15DE1B501C6010E94AB
:1044000044151092510188E0C82ED12CC618D70847
:104410002BE33AE147EA5BE1B601CE0107960E9441
:1044200033152091B001CE014A962111A8C541E370
:104430005AE1B7010E94441547E25AE1B801CE01A2
:1044400086960E944415B3E28B2E912C861897080D
:104450005E0141E2A40EB11C47EF59E1B401C50170
:104460000E9444158091B701813041F4809351013D
:104470004DEE59E1B401C5010E9444155E018BE285
:10448000A80EB11C80915101811194C52BE839E12E
:104490004BEB59E1B201CE0103960E94331521E4A2
:1044A00039E145E659E1B201C5010E943315C091D9
:1044B0000101D0E027EE33E147E356E1B201CE013E
:1044C0000E9433158091AF01811185C54DED53E1F7
:1044D000B801CE0145960E94441543ED53E1B70162
:1044E000CE0184960E94441504E210E006191709D3
:1044F0006C9645EB53E1B801CE010E9444158091C2
:10450000B601813031F44BEA53E1B801CE010E948B
:104510004415C091AE01CC23A9F100E020E140E8B0
:1045200060E370E090E080E00E94DD16C13009F0A9
:1045300071C501E028E043EA53E160E380E00E94B6
:10454000ED1724E04FE953E168E388E50E94ED1799
:1045500024E04BE953E168E388E00E94ED1724E092
:1045600047E953E168E380E30E94ED179091A601CB
:1045700022E045E953E168E388E2989F802D112409
:104580000E94ED170E94FE15B5CD1092B20165CEC6
:104590009A3021F481E08093B00174CE943109F017
:1045A00071CE81E08093AF016DCEC13009F00EC2B3
:1045B0008091A501823009F4FEC020E82093AC016F
:1045C0008EEB9FEF9093AB018093AA012093A901FA
:1045D00088E08093A8011092A4011092A3010E9488
:1045E0001B3126E130E040E050E00E9489316F5FEE
:1045F0006093A201C091A101C23001F182E08093D9
:10460000AE0180E20E94E815882371F08091A60136
:1046100090E00296B1010E9406328093A601C1117A
:1046200046C01092A0011FC080E40E94E8158823B4
:10463000B1F38091A60190E00196ECCF83E08093E6
:10464000AE0180E20E94E815811105C080E40E945D
:10465000E815882341F08091A60190E001968170D1
:1046600099278093A60188E00E94E815882341F0ED
:104670001092A601C11120C01092A1011092AD01AB
:104680008091A10181111CC084E00E94E815811174
:1046900035C02091A001213009F04CC080919F01CC
:1046A000823008F063C084E28093AC012ECEC1302A
:1046B000D1F610929F01D7CFC150C093A101E0CF96
:1046C000813029F584E00E94E815882311F32091B8
:1046D000A6018091A501833041F03091A001822F85
:1046E00090E0019638171906A1F22F5F20939F01E1
:1046F00082E08093A1011092A601CBCF8091A60108
:104700008F5F8093A00181E08093A101C2CF8230AE
:1047100009F0BFCF84E00E94E815882309F4B9CFDF
:104720008091A6018111EFCF8091A5018F5F8093C9
:10473000AD01AFCF223041F480919F018D7FB1F464
:1047400086E28093A901E1CD233069F480919F0135
:10475000882311F0833051F42BE130E03093AB012A
:104760002093AA01D2CD222309F4CFCD30919F010D
:10477000332309F4CACD223011F0323051F48EE3E4
:104780008093A901213011F0313019F481E0809338
:10479000AC01233019F0333009F0B7CD81E090E05F
:1047A0009093AB018093AA01213019F0313009F0C8
:1047B000ACCD87E479CF1092A60182E28093AC0160
:1047C00086EE9FEF9093AB018093AA0185E58093DD
:1047D000A9012091A701273090F030E83093AC0177
:1047E0008EEB9FEF9093AB018093AA013093A901C8
:1047F00080919E018111ADC084E28093AC0184E080
:104800008093AE0121110FC081E08093A701109227
:104810009D010E941B3123E030E040E050E00E9407
:10482000893160939E0184E00E94E815882341F05D
:1048300080919C01813F08F09CC08EEE80939C018A
:1048400080919C01813F18F48E5F80939C012091A0
:10485000A70180919B01882361F0273008F0ACC04C
:10486000822F63E00E94EC31913009F09BC01092DE
:10487000B70110929B01223009F047CD80919C0135
:10488000833008F042CD05E811E0F801C193CF5F15
:10489000C831E1F755E6E52EF12C0E941B3126E1E7
:1048A00030E040E050E00E948931609384010E9432
:1048B0001B31C0918401D0E0CB57DE4FD88026E178
:1048C00030E040E050E00E948931E62FF0E0EB5705
:1048D000FE4F80818883D08291E0E91AF108E9F6E1
:1048E000EFE6F1E0D8018D918D018193B1E00B39B4
:1048F0001B07C1F7C8E6D1E031E6E32E31E0F32E25
:104900000AE511E040E7C42E41E0D42E0E941B319D
:1049100023E030E040E050E00E94893169930E943A
:104920001B3124E030E040E050E00E948931F70183
:1049300061937F010E941B3123E030E040E050E0B2
:104940000E948931D8016D938D01CC16DD06F1F6F8
:10495000DCCC813021F486E28093A90150CF8230F3
:1049600009F04DCF8BE190E09093AB018093AA01C9
:1049700046CF8091A70110929C018F5F8093A70181
:10498000863039F483E08093AD0184E08093AE01FA
:1049900057CF8F3011F00C94CC301092AD011092A3
:1049A000A7014ECF923019F41092B80162CF911145
:1049B00060CF1092B6015DCF80919E01823009F4E4
:1049C00056CF882389F38130A1F353CFC43009F047
:1049D000DAC01092A80180E20E94E81581111092BD
:1049E000A60180E40E94E815882319F081E08093F5
:1049F000A6019091A001913009F066C080919F01BD
:104A0000823008F07AC081E08093B50184E00E9492
:104A1000F315882391F081E09091B501B82FB91B6F
:104A2000B093B8019091B401E82FE91BE093B7016E
:104A30009091B301891B8093B60188E00E94F31521
:104A40008823A9F0DF70D83090F481E09091B5010F
:104A5000F82FF91BF093B8019091B401082F091BAE
:104A60000093B7019091B301891B8093B60180E850
:104A70000E94F315882361F08091B5018093B10104
:104A80008091B4018093B0018091B3018093AF0114
:104A900080E10E94F315882379F08091B501880F99
:104AA0008093B1018091B401880F8093B00180910F
:104AB000B301880F8093AF0188E00E94F315811144
:104AC00050C01092590121CC923041F480919F0145
:104AD0008D7F99F481E08093B30198CF933051F4A6
:104AE00080919F01882311F0833039F481E0809315
:104AF000B4018CCF992309F489CF20919F012223FF
:104B000009F484CF923011F0223089F48091A6010B
:104B1000813011F48093B301913011F40C940F3073
:104B2000213029F4811103C081E08093B5019330D5
:104B300039F48091A601882339F0913059F40DC0E1
:104B4000233009F063CFF5CF31E03093B4019130D9
:104B500009F45CCF213009F059CF813009F056CFEC
:104B600052CF84E00E94F315882309F4AACF8091E4
:104B700059018F5F80935901843108F4C6CB81E0DD
:104B80008093AD01C2CBC23009F028C188E0809388
:104B9000A80184E08093AE0188E00E94E815C091EE
:104BA000A401882339F0C73028F481E08093AD0157
:104BB00010929C0188E00E94F315882309F474C0C8
:104BC000C73098F080915801863078F4809159016F
:104BD0008F5F80935901843140F010929C018AE0EC
:104BE0008093580180E18093570184E00E94E8158A
:104BF000882341F080919C01813F08F058C08EEEDF
:104C000080939C0180919C01813F18F48E5F80937A
:104C10009C0180919B01882359F08091A30181110F
:104C20005FC08091A001813009F04FC01092B8019F
:104C300010929B018091A401873008F466CB80918B
:104C40009C01823009F061CB0E941B3122E030E0F0
:104C500040E050E00E9489316093840180915801C6
:104C6000823031F0833009F041C0613009F08EC0EC
:104C7000109257010E941B3126E130E040E050E0E5
:104C80000E9489316F5F6093A2010E941B3122E074
:104C900030E040E050E00E948931609355018091FE
:104CA00057018093580131CB109259019ECF109239
:104CB0009C01CF5FC093A4018091A3019091560104
:104CC000890F81708093A3019DCF823019F41092D7
:104CD000B601AECF833009F0ABCF1092B701A8CFA9
:104CE000813009F0A5CF80919F019DCF882311F0DD
:104CF0008530A1F4C091A2018091550181110C94DD
:104D0000EB2F81E08093570160E08C2F0E941817F1
:104D100080935401C4CF9130D9F3C1CF813009F0D1
:104D200043C083E0809357018091A30181110AC0A1
:104D3000409154016091A0018091A2010E941F1E28
:104D4000809353018091A301813051F4409154012B
:104D500060919F018091A2010E941F1E80935301C8
:104D60008091530181110DC0109257010E941B3197
:104D700026E130E040E050E00E9489316F5F6093AF
:104D80005301809153018093A20189CF611187CF94
:104D900085E0809357018091550190E001968170E4
:104DA0009927809355017BCF803121F481E1809355
:104DB000570175CF813111F482E1F9CF823109F0C9
:104DC0006ECF1092AD0110929C011092A101109231
:104DD000A6011092AE011092A40161CFC33009F078
:104DE00094CA88E08093A80185E08093AE01809109
:104DF0009B018823F1F020919C01822F6CE30E949B
:104E0000EC319832B0F4243BA0F4E091A701F0E03B
:104E1000EC5AFE4F9081292F280F3327331FC901E9
:104E2000B1010E9406328130910509F077C01092DD
:104E3000B80110929B0184E00E94E8158823E9F1F3
:104E40008091520190E001968170992780935201E0
:104E5000892B99F53091A701E32FF0E0EE59FE4F31
:104E6000808123E0622F0E94EC318091A60198138B
:104E70001AC0832F83700E94F83120919D01275F13
:104E8000280F20939D0140919C01403F60F480EFEA
:104E900090E0841B91096CE370E00E9406322E5F63
:104EA000620F60939D013F5F3093A70110929C01B8
:104EB0003D3018F081E08093AD0180E20E94E8155A
:104EC000882369F080915201811109C08091A60167
:104ED00090E00296B1010E9406328093A60180E420
:104EE0000E94E815882369F080915201811109C060
:104EF0008091A60190E00196B1010E940632809354
:104F0000A60180919C01803F08F0FFC99091520159
:104F10009111FBC98E5F80939C01F7C9009719F42A
:104F20001092B70186CF029709F083CF1092B60195
:104F300080CF813089F46DE170E0661977094BE329
:104F40005DE1C60141960E9444156EE170E066196C
:104F500077094BE35DE139CA29E23DE141E35DE1D7
:104F6000B801C60142960E94331529E23DE141E3B2
:104F70005DE1B701C60180960E9433152ACA21302F
:104F800041F44DE15AE1B7010E94441543E15AE171
:104F900055CA29E23DE141E35DE1B7010E943315C5
:104FA00021E03AE149E05AE1B801CE0187960E943A
:104FB000331549CA6CE070E06619770927EE38E1CD
:104FC00043E159E1CE010E94331529E838E147EB6E
:104FD00058E1B60169CA813051F449EC53E1B80196
:104FE000CE0145960E9444154FEB53E178CA29E261
:104FF0003DE141E35DE1B701CE0183960E943315A7
:1050000021E03AE149E05AE1B801CE0146960E941A
:1050100033156ACAC23009F051C001E02AE04BE8FA
:1050200053E160E380E00E94ED17C091A001C13020
:10503000D1F501E024E042E853E168E380E30E9417
:10504000ED17C33051F001E026E04CE753E168E38F
:1050500088E50E94ED17CC2381F08091A501833073
:1050600061F488E2C89F802D112401E026E046E724
:1050700053E168E380520E94ED17D091A601C8E287
:1050800000E028E048E068E370E0DC9FC001112404
:105090000E94DD1601E022E045E953E168E3DC9F70
:1050A000802D11246DCA01E025E046E853E168E354
:1050B00088E00E94ED17C23031F2BBCFC33009F552
:1050C00001E02AE04CE653E160E380E00E94ED1746
:1050D00023E049E653E168E388E00E94ED1724E00D
:1050E00045E653E168E388E40E94ED178091A6014C
:1050F00022E045E953E168E38295880F880F807CC0
:105100003FCAC43009F025C501E028E040E160E372
:1051100070E090E080E00E94DD169091A301809104
:10512000A7019111AAC08111AFC08091A00100E038
:1051300023E042E653E1813061F000E023E04FE5F7
:1051400053E1823031F0833041F400E023E04CE55C
:1051500053E160E380E00E94ED17D091A701DE30BB
:1051600009F03FC080919E0181116BC100E023E0F6
:1051700042E653E160E30E94ED17C0919D01C63500
:1051800040F001E02AE148E852E160E380E10E945A
:10519000ED1789EB8C0F8F3040F401E02DE14BE6E9
:1051A00052E160E380E10E94ED178DEC8C0F8431B9
:1051B00040F401E026E145E552E160E380E10E9430
:1051C000ED178BEE8C0F01E02EE147E352E18E31BB
:1051D00008F475C101E022E145E252E1C53108F46D
:1051E0006EC1109256018091A4018111ACC1D11100
:1051F0001AC081E0809356018091A00101E02FE167
:1052000041E151E1813009F472C201E02FE142EF46
:1052100050E1823009F46BC201E02FE143ED50E12F
:10522000833009F464C2C0919C018C2F86958695C9
:10523000869590E0C03708F07AC4039600E028E035
:1052400040E760E370E0A3E0880F991FAA95E1F7BB
:105250000E94DD1628E040E868E370E090E080E01E
:105260000E94DD16C15FD0E0C153DB4F888181FF12
:1052700089C981E080939B0185C9913029F481110E
:1052800003C080919F0153CF813079F400E023E087
:105290004CE553E160E380E00E94ED1701E02FE070
:1052A0004DE453E160E380E156CF823069F400E0E1
:1052B00023E042E653E160E380E00E94ED1701E065
:1052C0002CE141E353E1EECF833069F400E023E0C9
:1052D0004FE553E160E380E00E94ED1701E027E134
:1052E0004AE153E1DFCF843069F400E023E04CE58C
:1052F00053E160E380E00E94ED1701E023E147E025
:1053000053E1D0CF853069F400E023E042E653E179
:1053100060E380E00E94ED1701E02EE049EF52E1EA
:10532000C1CF8D3009F019CF80919E0181115CC0F1
:1053300000E023E042E653E160E30E94ED1701E064
:105340002CE04DEE52E160E380E10E94ED1721E197
:105350004CED52E168E380E00E94ED1789E490E0B3
:1053600090934A018093490188E390E090934C0127
:1053700080934B0180919D01843630F064E60E9459
:10538000EC3190E00E94CF1A81E590E090934A01C1
:105390008093490188E390E090934C0180934B0106
:1053A00080919D018A3050F064E60E94EC31892F93
:1053B0006AE00E94EC3190E00E94CF1A89E590E00B
:1053C00090934A018093490188E390E090934C01C7
:1053D00080934B0180919D016AE00E94EC31892FFE
:1053E00090E00E94CF1AB9CE8130A1F400E023E012
:1053F0004FE553E160E380E00E94ED1701E02BE010
:1054000041ED52E160E380E10E94ED1720E141ECC3
:1054100052E1A0CF823009F0A1CF00E023E04CE5BB
:1054200053E160E380E00E94ED1701E02EE043EBE2
:1054300052E160E380E10E94ED1721E142EA52E18E
:1054400089CF813009F040C000E023E04FE553E10F
:1054500060E380E00E94ED17C0919D01C63540F0E9
:1054600001E029E14CE052E160E380E10E94ED17A8
:1054700089EB8C0F8F3040F401E029E143EF51E1DB
:1054800060E380E10E94ED178DEC8C0F843140F4D5
:1054900001E028E14BED51E160E380E10E94ED176E
:1054A0008BEE8C0F01E02BE140EC51E18E3138F0B6
:1054B00001E026E14AEA51E1C53108F092CE60E30D
:1054C00080E10E94ED178DCE823009F08ACE00E097
:1054D00023E04CE553E160E380E00E94ED17C091CA
:1054E0009D01C63540F001E028E142E951E160E369
:1054F00080E10E94ED1789EB8C0F8F3040F401E0C2
:1055000026E14CE751E160E380E10E94ED178DEC6C
:105510008C0F843140F401E024E148E651E160E37E
:1055200080E10E94ED178BEE8C0F01E02FE149E442
:1055300051E18E3120F2C53108F053CE01E029E16E
:1055400040E351E1BCCF813009F044C0C0919F01DC
:105550008FEF8C0F01E026E04DEC50E1823030F00F
:10556000C33041F401E02AE043EC50E160E380E124
:105570000E94ED178091A001813051F480E4C33086
:1055800009F488E501E025E046E853E160E313C053
:105590008230A1F4C13049F080E4C33009F488E5D9
:1055A00001E024E042E853E1F1CF01E026E04DEBD9
:1055B00050E160E380E40E94ED1735CE833009F0BE
:1055C00032CE80E4C33009F488E501E026E04CE700
:1055D00053E1DCCF823009F02CC581E08093560185
:1055E0008091A001C0919F0101E025E046E853E1D0
:1055F000813059F0823051F501E024E042E853E176
:10560000C13019F426E04DEB50E160E380E10E94E7
:10561000ED1701E02DE040EB50E160E388E30E94EC
:10562000ED1725E04BEA50E1C13069F001E025E0DB
:1056300046EA50E1C23039F0C33009F0F4CD01E060
:1056400025E041EA50E168E388E1B5CF833009F70E
:1056500001E026E04CE753E1D8CFC091A001809152
:1056600050018C0F9927991FB1010E94063201E069
:1056700025E04CE950E1009741F025E047E950E191
:10568000019719F024E043E950E160E380E10E94D2
:10569000ED1701E023E040E950E1C13069F001E09D
:1056A00022E04EE850E1C23039F0C33009F0BBCD02
:1056B00001E025E049E850E160E380E37CCF81E050
:1056C000809356018091A00101E02AE14FE650E16C
:1056D000813069F001E02BE144E550E1823039F09E
:1056E00001E02AE14AE350E1833009F09CCD60E318
:1056F00080E161CF81E08093560180919F0101E0BC
:105700002AE140E250E1813091F301E02CE144E0F4
:1057100050E1823061F301E029E14BEE5FE083303C
:1057200009F081CDE4CF81E08093560110925701BA
:1057300087E08093580180919F01C091A00101E012
:1057400025E046E853E1813059F08230B1F501E0BF
:1057500024E042E853E1C13019F426E04DEB50E17A
:1057600060E380E10E94ED1701E022E049EE5FE096
:1057700060E388E30E94ED1740E06091A20188E0B9
:105780000E942F1823E046EE5FE060E388E60E9467
:10579000ED1728E04EED5FE060E388E70E94ED172B
:1057A00026E048ED5FE0C13031F0C23069F401E03D
:1057B00026E042ED5FE068E380CF8330A9F601E0A8
:1057C00026E04CE753E1CCCF01E024E04EEC5FE073
:1057D000C33009F028CDEFCF8091A00180934F0115
:1057E0003EC48230E1F4C091A20140E06C2F0E94DF
:1057F0002F1801E023E046EE5FE060E388E30E94BB
:10580000ED1760914F018C2F0E94181741E0682F0F
:1058100089E00E942F1823E046EC5FE077C48330D4
:1058200009F001CDC091A20140E06C2F82E00E94FE
:105830002F1801E023E046EE5FE060E388E30E947A
:10584000ED1760914F018C2F0E94181741E0682FCF
:1058500089E00E942F1825E049E850E157C48130C3
:10586000C1F480914E0101E022E144EB5FE082301F
:1058700008F43DCF823029F401E020E144EA5FE002
:1058800036CF01E021E143E95FE0833009F0CBCC82
:105890002ECF823009F059C480914E018230C8F475
:1058A00001E02BE048E85FE060E380E10E94ED1753
:1058B00060914F018091A2010E94181741E0682F6A
:1058C0008CE00E942F1828E040E85FE068E388E061
:1058D0001FC48230C9F401E027E049E75FE060E3DC
:1058E00080E10E94ED1760914F018091A2010E941A
:1058F000181741E0682F88E00E942F182CE04DE631
:105900005FE060E388E604C4833009F08CCC01E0FA
:105910002BE042E65FE060E380E10E94ED176091DA
:105920004F018091A2010E94181741E0682F8CE07E
:105930000E942F1825E049E850E168E380E0E8C3C1
:1059400080914E018230D0F441E06091540182E0B8
:105950000E942F1801E026E04CE55FE060E388E359
:105960000E94ED1740E06091A2018CE00E942F1888
:1059700028E044E55FE068E388E01DCE8230B9F4BA
:1059800041E0609154010E942F1801E026E04CE5AF
:105990005FE060E388E30E94ED1740E06091A201C0
:1059A0008CE00E942F1826E04EE45FE0E4CF8330C5
:1059B00009F039CC41E06091540182E00E942F1837
:1059C00001E026E04CE55FE060E388E30E94ED172C
:1059D00040E06091A2018CE00E942F182BE043E48C
:1059E0005FE0C9CF80914E01823030F501E026E0C2
:1059F0004DE35FE060E380E10E94ED17C091A201FA
:105A000060914F018C2F0E94181741E0682F87E0AA
:105A10000E942F1823E046EE5FE060E380E60E94DC
:105A2000ED1740E06C2F8EE00E942F1828E045E330
:105A30005FE068E388E16CC3823021F501E026E095
:105A40004DE35FE060E380E10E94ED17C091A201A9
:105A500060914F018C2F0E94181741E0682F87E05A
:105A60000E942F1823E046EE5FE060E380E60E948C
:105A7000ED1740E06C2F8EE00E942F1828E04DE2D9
:105A80005FE0D7CF833009F0CECB01E026E04DE3D5
:105A90005FE060E380E10E94ED17C091A201609198
:105AA0004F018C2F0E94181741E0682F87E00E9459
:105AB0002F1823E046EE5FE060E380E60E94ED17DA
:105AC00040E06C2F8EE00E942F182BE042E25FE056
:105AD000B0CF80914E0101E02FE043E15FE08230E2
